:100000000C9454000C9473000C9473000C947300C3
:100010000C9473000C9473000C9473000C94730094
:100020000C9473000C9473000C9473000C94730084
:100030000C9473000C94EC000C9473000C947300FB
:100040000C9473000C9473000C9473000C94730064
:100050000C9473000C9473000C9473000C94730054
:100060000C9473000C9473000C9473000C94730044
:100070000C9473000C9473000C9473000C94730034
:100080000C9473000C9473000C9473009D01A401F4
:10009000BA01E701D001FE010F02630268026E029D
:1000A00074027A028002800211241FBECFEFD0E4D6
:1000B000DEBFCDBF11E0A0E0B1E0EAE7F5E000E08F
:1000C0000BBF02C007900D92A231B107D9F721E012
:1000D000A2E1B1E001C01D92AB31B207E1F70E948D
:1000E00086020C94BB020C940000CF93DF9300D0E7
:1000F0001F92CDB7DEB789837B836A8389818A307B
:1001000031F48A819B81BC018DE00E94750080ECF6
:1001100090E0FC018081882F90E080729927892BE4
:10012000B1F386EC90E02981FC01208380E090E02F
:100130000F900F900F90DF91CF910895CF93DF93A1
:10014000CDB7DEB781E0809312010000DF91CF913F
:100150000895CF93DF93CDB7DEB781E890E0FC013F
:1001600010820000DF91CF910895CF93DF93CDB738
:10017000DEB781E890E02BE0FC01208388E890E086
:100180002DE730E0FC01318320838FE690E022E010
:10019000FC01208384E890E0FC01118210828091B0
:1001A0000E0190910F01A0911001B0911101809367
:1001B000130190931401A0931501B09316018FE5DC
:1001C00090E02FE530E0F90120812068FC012083D8
:1001D0000000DF91CF9108951F920F9200905F0071
:1001E0000F92112400905B000F922F933F934F9337
:1001F0005F936F937F938F939F93AF93BF93EF938F
:10020000FF93CF93DF93CDB7DEB780911301909129
:100210001401A0911501B09116010197A109B1092E
:100220008093130190931401A0931501B0931601CC
:100230008091130190911401A0911501B0911601C4
:10024000892B8A2B8B2B91F40E949E0080910E01AA
:1002500090910F01A0911001B091110180931301B1
:1002600090931401A0931501B09316010000DF9143
:10027000CF91FF91EF91BF91AF919F918F917F911E
:100280006F915F914F913F912F910F9000925B0082
:100290000F9000925F000F901F901895CF93DF93FF
:1002A00000D000D0CDB7DEB769837A838B839C837F
:1002B00089819A81AB81BC8180930E0190930F015B
:1002C000A0931001B093110180910E0190910F0144
:1002D000A0911001B091110180931301909314012A
:1002E000A0931501B093160100000F900F900F908E
:1002F0000F90DF91CF910895CF93DF931F92CDB7E9
:10030000DEB780E290E0FC01808180958983809156
:10031000190190911A01CC01A0E0B0E040E050E05A
:1003200026E030E0841B950B2817390708F4B6C087
:100330008A5B9F4FFC010C94B20281E090E09093A5
:100340001A0180931901AAC081E0809317011092CD
:1003500018018981813039F485E090E090931A0189
:10036000809319019BC082E090E090931A018093E2
:10037000190194C082E080931701109218018981BD
:10038000813039F485E090E090931A01809319014F
:1003900085C084E090E090931A01809319017EC09B
:1003A00083E08093170181E0809318018981813077
:1003B00039F485E090E090931A01809319016EC0A2
:1003C00083E090E090931A018093190167C082E066
:1003D0008093170181E0809318018981813039F47D
:1003E00085E090E090931A018093190157C081E055
:1003F00090E090931A018093190150C08981813057
:1004000039F485E090E090931A018093190146C079
:1004100086E090E090931A01809319013FC0898192
:100420008130A1F580911701813039F482E090E0AC
:1004300090931A018093190130C080911701823086
:1004400059F480911801813039F481E090E0909363
:100450001A018093190121C080911701823059F44B
:1004600080911801882339F484E090E090931A0178
:100470008093190112C080911701833071F483E0D9
:1004800090E090931A018093190107C086E090E0F4
:1004900090931A018093190100C000008091190106
:1004A00090911A01CC01A0E0B0E040E050E026E0DD
:1004B00030E0841B950B2817390718F1835B9F4F99
:1004C000FC010C94B20285E290E0FC01108219C09C
:1004D00085E290E021E0FC01208313C085E290E0FA
:1004E00022E0FC0120830DC085E290E022E0FC01C7
:1004F000208307C085E290E024E0FC01208301C056
:10050000000000000F90DF91CF910895CF93DF930B
:10051000CDB7DEB781E290E0FC01108282E290E08C
:100520002FEFFC01208384E290E02FEFFC01208379
:1005300085E290E0FC0110826CE271E080E090E0E6
:100540000E944E010E94B50010921A0110921901EA
:100550000E947C010000809112018823E1F3109237
:100560001201F6CFEE0FFF1F0024001C0BBE0790F8
:0A057000F691E02D0994F894FFCFF6
:10057A0000000002000000007500000000000100F9
:02058A0000006F
:00000001FF
