:100000000C9458000C9477000C9477000C947700B3
:100010000C9477000C9477000C9477000C94770084
:100020000C9477000C9477000C9477000C94770074
:100030000C9477000C94F0000C9477000C947700EB
:100040000C9477000C9477000C9477000C94770054
:100050000C9477000C9477000C9477000C94770044
:100060000C9477000C9477000C9477000C94770034
:100070000C9477000C9477000C9477000C94770024
:100080000C9477000C9477000C9477009A01A101EE
:10009000DD01E401FE01170231025F027902CB02A9
:1000A000FC02D102FC02E102F102FC02FC02FC02B1
:1000B00011241FBECFEFD0E4DEBFCDBF11E0A0E022
:1000C000B1E0E2E7F6E000E00BBF02C007900D925E
:1000D000A231B107D9F721E0A2E1B1E001C01D9240
:1000E000AB31B207E1F70E9405030C9437030C947F
:1000F0000000CF93DF9300D01F92CDB7DEB7898386
:100100007B836A8389818A3031F48A819B81BC0137
:100110008DE00E94790080EC90E0FC018081882FC6
:1001200090E080729927892BB1F386EC90E02981C9
:10013000FC01208380E090E00F900F900F90DF9102
:10014000CF910895CF93DF93CDB7DEB781E0809351
:1001500012010000DF91CF910895CF93DF93CDB7C7
:10016000DEB781E890E0FC0110820000DF91CF91C2
:100170000895CF93DF93CDB7DEB781E890E02BE011
:10018000FC01208388E890E02DE730E0FC0131831A
:1001900020838FE690E022E0FC01208384E890E059
:1001A000FC011182108280910E0190910F01A091AB
:1001B0001001B09111018093130190931401A09349
:1001C0001501B09316018FE590E02FE530E0F901BD
:1001D00020812068FC0120830000DF91CF910895E9
:1001E0001F920F9200905F000F92112400905B000D
:1001F0000F922F933F934F935F936F937F938F93C0
:100200009F93AF93BF93EF93FF93CF93DF93CDB7BC
:10021000DEB78091130190911401A0911501B09166
:1002200016010197A109B10980931301909314015C
:10023000A0931501B09316018091130190911401C0
:10024000A0911501B0911601892B8A2B8B2B91F46B
:100250000E94A20080910E0190910F01A0911001C7
:10026000B09111018093130190931401A093150193
:10027000B09316010000DF91CF91FF91EF91BF91F4
:10028000AF919F918F917F916F915F914F913F912E
:100290002F910F9000925B000F9000925F000F90E3
:1002A0001F901895CF93DF9300D000D0CDB7DEB765
:1002B00069837A838B839C8389819A81AB81BC819A
:1002C00080930E0190930F01A0931001B093110140
:1002D00080910E0190910F01A0911001B091110138
:1002E0008093130190931401A0931501B09316010C
:1002F00000000F900F900F900F90DF91CF91089515
:10030000CF93DF93CDB7DEB78091190190911A0199
:10031000CC01A0E0B0E040E050E028E030E0841BF9
:10032000950B2817390708F41CC18A5B9F4FFC0105
:100330000C942E0381E090E090931A0180931901B0
:1003400015C180E290E0FC018081882F90E08095CB
:10035000909583709927039739F485E090E0909306
:100360001A018093190102C180E290E0FC018081B2
:10037000882F90E081709927892B39F482E090E0F2
:1003800090931A0180931901F1C080E290E0FC0182
:100390008081882F90E082709927892B39F484E03E
:1003A00090E090931A0180931901E0C081E090E001
:1003B00090931A0180931901D9C083E090E0909343
:1003C0001A0180931901D2C080E290E0FC01808183
:1003D000882F90E081709927892B49F41092180199
:1003E00088E090E090931A0180931901BFC081E0EA
:1003F00090E090931A0180931901B8C080E290E0D8
:10040000FC018081882F90E08095909583709927DA
:10041000039731F485E090E090931A0180931901DD
:1004200086E090E090931A01809319019FC080E2CA
:1004300090E0FC018081882F90E0809590958370FA
:100440009927039739F485E090E090931A018093FF
:1004500019018CC081E090E090931A0180931901FA
:1004600085C080E290E0FC018081882F90E080953B
:10047000909583709927039739F485E090E09093E5
:100480001A018093190172C080E290E0FC01808122
:10049000882F90E082709927892B51F481E0809316
:1004A000180188E090E090931A01809319015EC0D2
:1004B00081E090E090931A018093190157C080E287
:1004C00090E0FC018081882F90E08095909583706A
:1004D0009927039739F487E090E090931A0180936D
:1004E000190144C081E090E090931A0180931901B2
:1004F0003DC080E290E0FC018081882F90E08095F3
:10050000909583709927039741F41092170185E025
:1005100090E090931A01809319018091170189301E
:1005200060F4809117018F5F8093170188E090E05D
:1005300090931A018093190119C0109217018091AC
:100540001801882339F482E090E090931A01809397
:1005500019010CC084E090E090931A018093190176
:1005600005C010921A011092190100008091190122
:1005700090911A01CC01A0E0B0E040E050E028E00A
:1005800030E0841B950B2817390780F1815B9F4F62
:10059000FC010C942E0385E290E027E0FC0120830F
:1005A00030C085E290E0FC018081893038F585E239
:1005B00090E025E230E0F90120812F5FFC012083EB
:1005C0001DC085E290E0FC0180818823C9F085E2AE
:1005D00090E025E230E0F90120812150FC012083E8
:1005E0000FC085E290E0FC0110820BC085E290E034
:1005F00027E0FC01208305C0000003C0000001C00B
:1006000000000000DF91CF910895CF93DF93CDB725
:10061000DEB781E290E0FC01108284E290E02FEFEF
:10062000FC01208382E290E02FEFFC01208385E231
:1006300090E027E0FC01208364E670E080E090E039
:100640000E9452010E94B9000E9480010000809126
:1006500012018823E1F310921201F6CFEE0FFF1F73
:100660000024001C0BBE0790F691E02D0994F8942D
:02067000FFCFBA
:1006720000000002000000007900000000000100FC
:02068200000076
:00000001FF
